:100000000C9460010C94A4010C94BF010C94A40105
:100010000C94A4010C94A4010C94A4010C94A401CC
:100020000C94A4010C94A4010C94C6150C94A40186
:100030000C94A4010C94A4010C94A4010C94A401AC
:100040000C94A4010C94A4010C94A4010C94A4019C
:100050000C94A401D90BD90B0B0C0B0C580C8C0D68
:100060008C0D8C0D760C0B0D1C0D1C0D7C0D8C0D50
:100070008C0D850D280E280E3A0E3A0E310E3A0ED2
:100080003A0E3A0E280E280E360E3A0E3A0E360E5C
:1000900029001E001F002000210022002300240050
:1000A0002500260027002D002E0000002A004C000D
:1000B0002B00000014001A000800150017001C0097
:1000C00018000C00120013002F0030003100A900AE
:1000D000E000000004001600070009000A000B0001
:1000E0000D000E000F003300340028000000AA00AD
:1000F000E10000001D001B000600190005001100B2
:1001000010003600370038000000E5005200AE0055
:10011000E000E30000000151000000002C0000009E
:1001200000000000E60001516800500051004F003F
:1001300035003A003B003C003D003E003F004000DF
:10014000410042004300440045000000010001005E
:100150000100000001000100010001000100010098
:100160000100010001000100010001000100010087
:100170000100000001000100010001000100010078
:100180000100010001000100010001000000010068
:100190000100000001000100010001000100010058
:1001A0000100010001000100000001000100010048
:1001B000010001000000010000000000010000003B
:1001C0000000000001000100010001000100010029
:1001D00009023B00020100A0FA090400000103012A
:1001E00001000921010100012240000705810308E7
:1001F00000010904010001030000000921010100C0
:1002000001223200070583030800011201100100DA
:10021000000008EDFE0000010001020301040330AC
:100220000000001803620061007300690063006E43
:100230000075006D0070006100640000000A034159
:10024000006E006400790000000403090405010940
:1002500080A101850319012AB700150126B7009571
:100260000175108100C0050C0901A1018504190167
:100270002AA002150126A002950175108100C00573
:10028000010906A101050719E029E71500250195D7
:100290000875018102950175088103050719002978
:1002A000FF150026FF009506750881000508190155
:1002B0002905950575019102950175039103C0000B
:1002C00011241FBECFE5D8E0DEBFCDBF04B603FECC
:1002D00024C080917B0290917C02A0917D02B0911C
:1002E0007E028730904BA740B04BB9F410927B024E
:1002F00010927C0210927D0210927E0214BE84B78E
:10030000877F84BF0FB6F894A89581B5886181BDB9
:1003100011BC0FBEEFEFFFE3099510E0A0E6B0E0DF
:10032000E2ECF2E302C005900D92A63EB107D9F7C8
:1003300022E0A6EEB0E001C01D92AB37B207E1F7B4
:100340000E9422160C945F190C940000A82FB92F5C
:1003500080E090E041E050EA609530E009C02D91E6
:1003600082279795879510F084279527305EC8F3EC
:100370006F5FA8F30895EADF8D939D930895CF935F
:10038000CFB7CF93DF93C395839BE9F7839B10C0CF
:10039000839B0EC0839B0CC0839B0AC0839B08C0B9
:1003A000839B06C0C0915202C395C09352028EC077
:1003B0006F93C0915102DD27C75ADD4F2F9365E53A
:1003C000839B03C02F916F91E1CF0F931F934F93A6
:1003D00020E040E15F9300B30C7003FB27F93F93EB
:1003E00050E03BE039C01C7040642F77012F5F5F05
:1003F0001EC0406810B31C702F7752501FC040645D
:1004000000B32F770C70D1F15F5F00C023C0406252
:1004100010B32F771C7091F15F5F00C025C00C7086
:100420001027515012F45D5F0000115027952C3FAA
:1004300010B3C8F61C700127015027952C3FC8F651
:100440004227499300B30C7010274F731150279522
:100450002C3FA8F64695469510B31C7079F00127FD
:10046000015027952C3F98F66B5A60F3315000B33A
:10047000B0F600C010E81ABF00271CC03B503195F1
:10048000C31BD04010E81ABF0881033C21F10B3494
:1004900011F120914E021981110F1213EDCF4A81F3
:1004A000441F093679F10D3211F0013E29F74F70E2
:1004B00009F0042F009357023F915F914F911F91D4
:1004C0000F912F916F91CAB7C7FD5DCFDF91CF918B
:1004D000CFBFCF91189520915702222369F3109135
:1004E0005502112309F049C034300AF448C0309352
:1004F000550220935002109151023BE0311B309382
:1005000051023DC0009155020130BCF50AE54F7023
:1005100049F430916D0034FD33C000936D00CBE29F
:10052000D2E032C0433059F0443091F0309136027D
:1005300034FD26C000933602C7E3D2E025C03091D7
:100540006F0234FD1DC000936F02C0E7D2E01CC0F3
:100550003091420234FD14C000934202C3E4D2E061
:1005600013C0052710E000C0000002BB1AC0052719
:1005700010E0221F1DC010E021C04AE502C032ED8C
:10058000432FC4E1D0E032E011B31C60939A02B370
:1005900011BB5CE020E865E320FF052702BB27953F
:1005A00017951C3FF0F66695B8F7B1F720FF0527C1
:1005B00002BB279517951C3FD0F62795179517FF77
:1005C000052700001C3F02BBB0F629913A9519F7A8
:1005D000037F10915602110FC651D04002BB11F09B
:1005E00010934E0210E81ABF086011B3137F402F1A
:1005F000437F54E05A95F1F702BB11BB42BB5CCF7D
:100600000C940A030C940B030C9408030C940C0335
:1006100081E0089508950895089581E0089508956A
:100620000C940F031F93CF93DF9300D000D01F9241
:10063000CDB7DEB749835A836B833091FE00898141
:100640009A81311114C0662359F0222349F00E9487
:100650006413182F682F89819A810E940D1303C09B
:100660000E943813182F69817A81812F04C00E945B
:10067000641369817A810F900F900F900F900F9003
:10068000DF91CF911F910C94C103FC01262F408173
:1006900051816281738184810C941203CF93DF9323
:1006A000EC0160E00E944503BE01DF91CF910C9404
:1006B00010030E949614811102C00E9436150C94FA
:1006C00000030C94020381E008950C946303CF931C
:1006D000C82F0E9406038C2F0E946503CF910895B6
:1006E00008950E94160E0E9470032FEF84E39CE091
:1006F000215080409040E1F700C000000C94EC15C0
:100700000F931F93CF93DF93EC0161E00E944503A9
:100710008C01BE010E940403882349F1BE01C80177
:100720000E948707882319F1BE01C8010E94D907DA
:100730008823E9F0BE01C8010E9404098823B9F0AA
:100740008A81882369F001158CE5180731F00E3D88
:100750001C4531F40E9436150AC00E94710307C07F
:10076000CE01DF91CF911F910F910C940D0380E08A
:10077000DF91CF911F910F91089580E090E008954F
:100780000895E72FF0E095E0899FE00DF11D112419
:1007900084E0EE0FFF1F8A95E1F7E60FF11DEE0FE3
:1007A000FF1FE057FF4F859194910895880F991F7F
:1007B000FC01E053FE4F859194910895CF93DF9310
:1007C0000E94C1030E94F004EC018115904508F0DD
:1007D00043C0C11580E4D80708F0CBC0C03ED105A6
:1007E00028F5C03CD10508F0B3C0C83AD10578F46B
:1007F000C53AD10508F0A4C0C130D10509F4ECC058
:1008000008F4E8C0C430D10508F0E6C0E3C0CF3B2F
:10081000D10508F0DFC0C85AD0E0CC0FDD1FC259A7
:10082000DF4F0990D881C02DD464D6C0C11590E2A5
:10083000D90750F4C11521E0D20708F0CDC0C83E59
:10084000D10508F4C9C0C6C0C11580E3D80708F0B7
:1008500086C0CE019F707FC0C11595E5D90708F00D
:1008600043C0C11524E5D20708F09AC0C11582E53E
:10087000D80708F5C11591E5D90708F07DC0CE016C
:1008800074E0969587957A95E1F783709C2F937025
:1008900021E030E002C0220F331F9A95E2F73C6856
:1008A000382BCF70C695C69580E2C89FE001112411
:1008B000C22BD32B91C09E01237033278C2F86959A
:1008C0008695C115D34508F05CC0C1E0D0E002C0F8
:1008D000CC0FDD1F2A95E2F720E2829FC001112490
:1008E000C82BD92BDC6878C0C11529E5D207A0F444
:1008F000C11588E5D80708F058C0C11596E5D90795
:1009000008F068C08C2F0E9484058F71C82FD0E03A
:10091000DC2FCC27D06260C0C1152AE5D20708F4CD
:1009200049C0CE0190568115904208F053C08D2FDA
:100930008F710E948405DD27D0628F71D82B4CC047
:10094000C55AD0E0C456DF4FC881D0E0D06444C05F
:10095000CE01805C91090E94D603EC013DC0CE011E
:100960009927D3FF03C0EC01D86C36C0EC01D06CE2
:1009700033C0DF70D06A30C0DC2FCC27C16FD06AA3
:100980002BC0C1E0D0E002C0CC0FDD1F2A95E2F7FA
:1009900020E2829FC0011124C82BD92BDA681CC029
:1009A000DC2FCC27C46FD06A17C0DC2FCC27C06FD8
:1009B000D06A12C08C2F8F700E94840594E0D69567
:1009C000C7959A95E1F7CF70D0E0DC2FCC27D0699E
:1009D000C82B02C0C0E0D0E0CE01DF91CF910895D6
:1009E0008238910569F1B0F48133910509F46DC045
:1009F00048F48932910509F463C08A32910509F4FB
:100A000069C008958533910509F455C0893391056E
:100A1000B9F00895833E910569F138F4803E91055F
:100A2000B1F0823E910509F10895863E9105A9F144
:100A3000873E9105B9F1843E910509F064C023C059
:100A40002091290220FD4FC021FD4DC008958091C5
:100A5000290280FD44C080912A0280FF44C0809119
:100A6000290284FD42C083EE4DC08091290282FF9D
:100A700038C0F5CF8091290282FD33C080912A02CF
:100A800080FD31C0ECCF80912A0281FF32C080917D
:100A9000290284FD2AC087EE35C08091290283FF98
:100AA00026C0F5CF8091290283FD21C080912A02C2
:100AB00081FD1FC0ECCF8091290285FD1CC01DC0A7
:100AC0008091290285FD19C016C08091290286FDFA
:100AD00016C017C08091290286FD13C010C089E39B
:100AE00011C082EE0FC080EE0DC080E00BC086EE1C
:100AF00009C084EE07C089E205C085E303C08AE22D
:100B000001C081E390E008959091290292FF0DC009
:100B1000282F2871283019F4877F846006C0282F79
:100B20002471243011F48B7F886093FF0DC0282F2F
:100B30002871283119F4877E846106C0282F24711A
:100B4000243111F48B7E886120912A0220FF0DC090
:100B5000382F3871383019F4877F816006C0382FFC
:100B60003171313011F48E7F886021FF0DC0282F44
:100B70002871283119F4877E816106C0282F2171E0
:100B8000213111F48E7E886194FD877E0895E82FCF
:100B9000F0E0EE0FFF1FE55EFD4F8081918108952B
:100BA000089580EA8A95F1F70895CF93DF93AFEA2D
:100BB000B0E044EB50E061E070E08D91E82FE29509
:100BC000EF70F0E021A98F70EB0102C0CC0FDD1FA8
:100BD0008A95E2F7CE019C2F9095922391AB92A932
:100BE000892B82AB4A175B0741F7AFE9B0E04FEAC8
:100BF00050E061E070E08D91E82FE295EF70F0E059
:100C000021A98F70EB0102C0CC0FDD1F8A95E2F79E
:100C1000CE019C2F9095922391AB92A9892B82AB08
:100C20004A175B0741F7E1E1F2E0ABE1B2E08BE1AB
:100C300092E0119211921D921D928E179F07C9F793
:100C400085E00E94B406DF91CF910C9459036F9216
:100C50007F928F929F92AF92BF92CF92DF92EF924C
:100C6000FF920F931F93CF93DF938FEAC82E80E0FC
:100C7000D82E01E112E09BE1A92E92E0B92E712C51
:100C800088248394912CF60181916F01C82FC2951D
:100C9000CF70D0E099A98F70740101C0EE0C8A95D5
:100CA000EAF7892F8E2989AB8AA96E2C6094862158
:100CB0008AAB0E94D105EFE9F0E040E050E020E08F
:100CC00030E06191A62FA295AF70B0E0D0968C91E4
:100CD00090E06F7002C0959587956A95E2F780FD68
:100CE00008C0C401042E02C0880F991F0A94E2F7BD
:100CF00002C080E090E0282B392B4F5F5F4F4031DE
:100D00005105F9F689A9682269AA8AA9E82AEAAAF6
:100D1000F801808191812817390721F031832083E0
:100D200081E001C080E0782A0E5F1F4FA016B10657
:100D300009F0A9CF272D45E06BE172E081E192E057
:100D40000E94B5060E946103872DDF91CF911F910C
:100D50000F91FF90EF90DF90CF90BF90AF909F905A
:100D60008F907F906F9008950895FF920F931F9337
:100D7000CF93DF93F82E092F162FD72FC42F2223BE
:100D800049F081E08093E8000E94AB159093E70062
:100D90008093E6008091E8008823D9F08091E600F6
:100DA0009091E7000E94B715069798F0EF2DF02F6D
:100DB000A12FBD2F80E090E04C2F50E084179507C5
:100DC00034F4219131912D933D930196F7CF1092F8
:100DD000E800DF91CF911F910F91FF900895AF929E
:100DE000BF92CF92DF92EF92FF920F931F93CF9318
:100DF000DF937C015B01C42FD22FFC018281882309
:100E0000F9F04093EB000E94AB159093EA008093B9
:100E1000E90080E28C0F883008F06EC0C77081E076
:100E200001C0880FCA95EAF7DF91CF911F910F910A
:100E3000FF90EF90DF90CF90BF90AF900C94950B08
:100E40008091EB00481335C08091E9009091EA0051
:100E50000E94B7156C01B701C5010E94CF10C816DA
:100E6000D90638F510E21D0FCD17B9F080E28C0FCE
:100E7000883040F4C77081E001C0880FCA95EAF756
:100E80000E949C0B183058F581E09D2F977001C08F
:100E9000880F9A95EAF70E94950B802F0E94820B8B
:100EA000183050F5D77081E001C0880FDA95EAF765
:100EB0000AC080E28C0F8830F8F4C77081E001C06E
:100EC000880FCA95EAF7DF91CF911F910F91FF909C
:100ED000EF90DF90CF90BF90AF900C949C0B802F41
:100EE000DF91CF911F910F91FF90EF90DF90CF9006
:100EF000BF90AF900C94820BDF91CF911F910F9117
:100F0000FF90EF90DF90CF90BF90AF9008950F9338
:100F10009C01CB01233F4CE5340731F188F4283D97
:100F2000FCE53F07D9F0293D4CE5340779F1273D31
:100F30003C45A9F506E221EE41EE67ED7CE52BC0CC
:100F4000253FFCE53F07E1F0A8F0263F3C4539F599
:100F500007E225EE46EE66EF7CE51DC007E225EED2
:100F600045EE68ED7CE517C006E221EE40EE63EF4A
:100F70007CE511C007E225EE44EE64EF7CE50BC092
:100F800006E221EE42EE65EF7CE505C008E221E0D5
:100F900045EE69ED7CE50E94EF0680E008C0FC01AB
:100FA0008281882319F01092EB0001C081E00F913B
:100FB0000895CF93DF93EC01FB018281882309F42C
:100FC0001FC1C230FCE5DF0708F41BC1C6319CE538
:100FD000D90738F09E012A5F3C452930310508F0D9
:100FE00010C10E94A91490932A0280932902C03153
:100FF000ECE5DE0709F4C3C008F041C0C8308CE559
:10100000D80709F49AC0F0F4C430ECE5DE0709F41F
:1010100087C068F4C2308CE5D80709F477C0C330C4
:10102000DC4509F0E3C080912902826076C0C630B9
:10103000ECE5DE0709F46EC008F07BC08091290260
:1010400088606BC0CC308CE5D80709F485C068F4A3
:10105000CA30ECE5DE0709F474C008F079C00E94DC
:10106000160E80912902806858C0CE308CE5D807D2
:1010700009F476C008F07FC0809129028BC0CB3F75
:10108000ECE5DE0709F44FC018F5C3318CE5D8074D
:1010900009F47DC078F4C131ECE5DE0709F473C0D2
:1010A000C231DC4509F0A2C00E94160E80912902CF
:1010B0008F7733C0C5318CE5D80709F472C008F4C6
:1010C00086C0CA3FDC4509F091C080912A023EC02B
:1010D000CF3FFCE5DF0709F45FC058F4CD3F9CE546
:1010E000D90709F444C008F43FC080912A02826005
:1010F0002DC0C130FDE5DF0709F475C008F45DC0FF
:10110000C230DD4509F072C080E06EC080912902D6
:10111000816003C08091290280618093290266C0AA
:101120008091290211C080912A02826080932A0254
:101130005DC0809129028062F0CF80912902806495
:10114000ECCF8091290288608460E7CF8160EECF88
:10115000809129028E7FE1CF809129028D7FDDCFA2
:1011600080912902877FD9CF80912A0218C080916F
:101170002A028D7FDBCF809129028F7ECECF809196
:1011800029028F7DCACF809129028F7BC6CF8091A3
:101190002902877F8B7FC1CF80912A028D7F8E7F2E
:1011A000C5CF8091290282FB222720F991E0922766
:1011B00090FB82F990FB83F9B0CF80912A02982F9F
:1011C000909591708E7F892B90FB81F9AFCF0E9413
:1011D000160E8091290287FB222720F991E09227A1
:1011E00090FB87F99ACF81E00E94381580912902FF
:1011F00090912A020E94BA140E94160E80E001C04B
:1012000081E0DF91CF910895CF93DF9386319C45A4
:1012100041F5EB010E94E513982F8A81209160002F
:1012200030916100882379F09A7A81E009F480E0B6
:101230008093EC00911102C069E201C065E3C9012D
:101240000E947F150AC08091EC00811102C069E202
:1012500001C065E3C9010E9481150E94331480E03A
:1012600001C081E0DF91CF9108959093F2008093C7
:10127000F1000895E091F100F091F200309721F033
:101280000190F081E02D099480E00895E091F10053
:10129000F091F200309721F00280F381E02D099463
:1012A00008952091EF003091F0002817390771F070
:1012B0009093F0008093EF00E091F100F091F20044
:1012C000309721F00680F781E02D09940895209150
:1012D000ED003091EE002817390771F09093EE0081
:1012E0008093ED00E091F100F091F200309721F051
:1012F0000084F185E02D0994089584B7806884BF47
:1013000084B7806884BF089508950C9484090C9470
:1013100085090C9484090C9484090E947D090E941B
:1013200089090C94870981E008950C9493090E941F
:10133000A4150E94D5050E9400160C948B097F927B
:101340008F929F92AF92BF92CF92DF92EF92FF92D5
:101350000F931F93CF93DF93CDB7DEB72A970FB6C6
:10136000F894DEBF0FBECDBF0E9427060E949509EC
:10137000811111C08FEF89838A831B820E94AB1574
:101380008160782F9D838C8349815A816B818D8107
:101390000E944D0A4FC044EFA42E40E0B42E00E05E
:1013A00010E0702E802F0E94C7056C01F50181901E
:1013B00091905F01882699268114910431F40F5F82
:1013C0001F4F0530110569F7D5CF80917E0181FD52
:1013D0000E94D00580E0EE24E394F12C94012E21AC
:1013E0003F21232B09F18E837F82CE20DF2081E0F5
:1013F000CD2809F480E088870E94AB158160782FA2
:101400009A8789874E815F8168858A850E944D0A07
:10141000000F111FF801EC50FF4F80819181E826E9
:10142000F926F182E08206C08F5FEE0CFF1C80314E
:10143000A9F6C5CF0E943A099091F3008917C9F027
:101440000E943A098093F3002A960FB6F894DEBF03
:101450000FBECDBFDF91CF911F910F91FF90EF9005
:10146000DF90CF90BF90AF909F908F907F900C9423
:1014700067032A960FB6F894DEBF0FBECDBFDF918B
:10148000CF911F910F91FF90EF90DF90CF90BF9081
:10149000AF909F908F907F900895CF93DF93CDB7BB
:1014A000DEB72B970FB6F894DEBF0FBECDBF4F83CC
:1014B000588769877A878B87DE01119686E0FD0160
:1014C00011928A95E9F785E0FE01379601900D9219
:1014D0008A95E1F749815A816B817C818D819E815A
:1014E0000E94D2102B960FB6F894DEBF0FBECDBF70
:1014F000DF91CF910895FC01808191810E94A61314
:101500000895CF93882309F49CC0C82F8238C1F472
:101510000E943A0981FD95C069E380916000909135
:1015200061000E947F150E9433142FEF81EE94E03A
:10153000215080409040E1F700C0000069E319C0ED
:10154000833801F50E943A0980FD7BC063E58091F4
:101550006000909161000E947F150E9433142FEF6C
:1015600081EE94E0215080409040E1F700C00000FF
:1015700063E580916000909161000E948115CF9198
:101580000C9433148438C1F40E943A0982FD59C086
:1015900067E480916000909161000E947F150E9435
:1015A00033142FEF81EE94E0215080409040E1F71A
:1015B00000C0000067E4DDCF8CEF8C0F813AD0F4DF
:1015C0006C2F80916000909161000E9449158823E2
:1015D00049F06C2F80916000909161000E9481150C
:1015E0000E9433146C2F80916000909161000E94E2
:1015F0007F15C5CF80E28C0F883048F4C77081E03A
:1016000001C0880FCA95EAF70E94E813B8CFEBE54E
:10161000EC0FE33040F4F0E0EE51FF4F808190E0BA
:10162000CF910C945109C85AC73158F4EC2FF0E00F
:10163000EE0FFF1FEC54FF4F80819181CF910C94EE
:101640006709CF910895882309F45BC0682F823819
:1016500079F40E943A0981FF54C069E380916000E7
:10166000909161000E947F150E94331469E310C0BD
:101670008338B1F40E943A0980FF43C063E580914A
:101680006000909161000E947F150E94331463E511
:1016900080916000909161000E9481150C94331438
:1016A000843879F40E943A0982FF2BC067E4809164
:1016B0006000909161000E947F150E94331467E4DE
:1016C000E7CF8CEF860F813A18F380E2860F8830DF
:1016D00048F4677081E001C0880F6A95EAF70E94BC
:1016E000EE13DCCF8BE5860F833020F480E090E0B2
:1016F0000C945109685A673120F480E090E00C9412
:1017000067090895CF93C82F0E94810AC93349F40D
:101710002FEF87EE93E0215080409040E1F700C02A
:1017200000008C2FCF910C94230B882321F00E9472
:10173000E8130C9433140895882321F00E94EE13CB
:101740000C9433140895CF92DF92EF92FF920F938F
:101750001F93CF93DF937C01062FC72FFC011581C8
:1017600012951F70D281D1110E9405140E94DE13C0
:10177000882399F0DD2389F08C2F807F803421F03D
:1017800080E2800F883048F082E00E947D140E9441
:10179000DE1391E0D82ED92601C0D12CCC2EC294D4
:1017A0008FE0C8228C2D90E0FC01E65DFF4F0C9489
:1017B00018198C2F807FCF70882311F0C295C07FBD
:1017C000DD2399F0CC2309F482C180E2800F8830B8
:1017D00010F0011104C08C2F0E94E81303C08C2F5D
:1017E0000E94F8130E94331472C1802F0E94230BB1
:1017F000CC2309F491C180E2800F883010F00111F0
:1018000004C08C2F0E94EE1303C08C2F0E94FE1385
:101810000E94331481C18C2F807FCF70803211F0F1
:10182000C295C07F002319F00130C9F022C0DD232A
:1018300071F0112341F0113031F40E9418148C2BF7
:101840000E94201469C10E9418148C2B1DC0112302
:1018500019F0113009F460C10E94291425C0DD235C
:1018600021F0163008F058C10EC0153008F054C1F0
:101870001BC0DD2361F0112331F0F701858180FF6A
:1018800026C18F7085838C2F0E94950B45C1112333
:1018900059F0093309F02CC1FFEF27EE83E0F15036
:1018A00020408040E1F722C18C2F0E949C0B34C164
:1018B0008C2F86958695837019F0813061F02CC14C
:1018C000DD2321F0802F9C2F937002C080E090E0F8
:1018D0000E94510929C1DD2321F0802F9C2F937094
:1018E00002C080E090E00E9467091EC18C2F8370C7
:1018F00009F045C0D11114C1402F4295469547705B
:10190000440F440F602F6F70862F90E0A0E0B0E08E
:10191000042E04C0880F991FAA1FBB1F0A94D2F778
:1019200004FF10C00FE010E020E030E004C0000F22
:10193000111F221F331F4A95D2F70095109520954D
:10194000309503C000E010E09801C695C695C370BD
:10195000BC01CD01602B712B822B932BC23049F03F
:1019600058F4C13019F00E942312DAC00E941112FB
:10197000D7C00E943512D4C00E940F12D1C0DD23FF
:1019800019F08C2F817001C08695882309F4C8C096
:10199000402F429546954770440F440F602F6F705B
:1019A000862F90E0A0E0B0E0042E04C0880F991FBD
:1019B000AA1FBB1F0A94D2F704FF10C00FE010E06B
:1019C00020E030E004C0000F111F221F331F4A9592
:1019D000D2F7009510952095309503C000E010E0F7
:1019E0009801C695C695C370BC01CD01602B712BC3
:1019F000822B932BC23049F058F4C13019F00E9469
:101A0000E8128EC00E94D6128BC00E94FA1288C0C3
:101A10000E94491285C0CF70DD2339F08C2F0E94BF
:101A20006F12802F0E94950B7BC0802F0E949C0B11
:101A30008C2F0E94901274C0023F01F128F4003FE5
:101A400041F0013FA1F03FC0033FF9F0043F39F1FD
:101A50003AC0DD2341F0153008F05EC08C2F8F7145
:101A60000E94B51259C0163008F056C0F7CFDD23DA
:101A700039F08C2F8F710E946F124EC0DD23C9F395
:101A80008C2F8F710E94901247C0DD2329F08C2F7C
:101A90008F710E945A1240C00E9455123DC0DD2332
:101AA00049F0CF718C2F0E946F1263E08C2F0E943F
:101AB000681432C081E00E947D14123068F182E027
:101AC0000E947D1429C0DD2331F0112391F2802F73
:101AD0000E94810A21C0112399F2093349F49FEF32
:101AE000E7EEF3E09150E040F040E1F700C0000085
:101AF000802F0E94230B10C04C2F4F70602FC70106
:101B00000E94BD030E9480110FC04C2F4F70602FA8
:101B1000C7010E94C00308C088EF8C0D843020F4F8
:101B20000E943A090E946703DD20C9F00E94DA137F
:101B300080FD15C0F70112820E94D4130E946F121B
:101B4000C7010E94D00D0E94D413DF91CF911F9145
:101B50000F91FF90EF90DF90CF900C949012DF9157
:101B6000CF911F910F91FF90EF90DF90CF9008954C
:101B70000F931F93CF93DF93EC01688179818A8162
:101B80000E94B1138C010E940C130E94FD11B80138
:101B9000CE010E94A30BDF91CF911F910F91089569
:101BA000CF93DF93EC01988189812B813C81232B9A
:101BB00031F08F3F31F481E09F3F19F403C081E0A1
:101BC00001C080E080FD19C0CE010E948003811118
:101BD0000CC00E94DE13882381F08A81882369F07B
:101BE00082E0DF91CF910C947D14CE010E94B80D5C
:101BF000CE01DF91CF910C944E03DF91CF910895E8
:101C00000E9405140E9415140E94331480E090E095
:101C10000E94510980E090E00C9467098091600077
:101C2000909161000E9483150C94000E0E94F513A0
:101C30000C940E0EE92FE295EF704E2F50E0FA0152
:101C40003297EE30F105B0F4E65CFF4F0C941819B2
:101C5000803F91F018F4883E68F40EC0843F51F440
:101C60000BC0883E48F0813F29F406C093FB8827CB
:101C700080F9089580E0089581E008950E94A613F8
:101C80000E941A0E0895CF93DF9300D000D01F92C8
:101C9000CDB7DEB70F900F900F900F900F90DF91A0
:101CA000CF910895CF93DF9300D000D000D0CDB76F
:101CB000DEB726960FB6F894DEBF0FBECDBFDF911C
:101CC000CF9108951F93CF93DF93C091FF0016E04B
:101CD00080910001C81799F0D0E01C9FF0011D9F72
:101CE000F00D1124EF5FFE4F4081518162817381BD
:101CF000848195810E94520E2196C770E9CFDF91B1
:101D0000CF911F910895409131015091320160911E
:101D100033017091340180913501909136010C941A
:101D2000520E0F931F93CF93DF93809136018295CC
:101D30008F7009F05DC080913301882309F458C089
:101D40008091FF001091000160913101709132018A
:101D5000C0913401D091350191E06F3F09F090E0DE
:101D6000292F06E0811709F443C0209721F07F3F17
:101D700021F030E003C031E001C0322F90E030FDAF
:101D800034C0089FF001099FF00D1124DF01AF5FFF
:101D9000BE4F11963C911197371327C03C913613D3
:101DA00024C012963C91129731111FC013964D9189
:101DB0005C9114974C1B5D0B483C5105B0F480912D
:101DC00036018F70806180933601EA5FFE4F80811B
:101DD0008F708061808381E391E00E94D00DDF915C
:101DE000CF911F910F910C94620E01968770BACF1C
:101DF000DF91CF911F910F9108959F92AF92BF9263
:101E0000CF92DF92EF92FF920F931F93CF93DF93C6
:101E1000CDB7DEB761970FB6F894DEBF0FBECDBF6A
:101E20008C0185E0F801DE011D9601900D928A95E6
:101E3000E1F7F80140815181E28090913101609198
:101E4000320120913401309135012115310531F0F5
:101E50006F3F31F481E09F3F19F403C081E001C07E
:101E600080E0F82FF1709F2E80FD46C1F801A3801D
:101E7000B48081E3C82E81E0D82EF0903301F501C3
:101E8000E21BF30BFF2009F4DFC080913601E83C30
:101E9000F10508F09BC0282F207F09F052C056138F
:101EA00013C0491311C0FE2CE1100EC08F70806169
:101EB000809336010E94830EC6010E94D00D80914E
:101EC0003601F801858358C1AB2831F05F3F31F40A
:101ED00081E04F3F19F403C081E001C080E080FD44
:101EE00003C081E08E2502C080E090E0F82FF17001
:101EF000FF2E80FF1CC08091FF002091000136E082
:101F0000821709F417C190E0389FF001399FF00D56
:101F10001124EF5FFE4F6181561306C060814613A6
:101F200003C06281E61203C001968770E9CFFE2CE0
:101F3000EE2009F421C18091360181608093360141
:101F40005AC0561306C0491304C0E11002C0F8017C
:101F50009FC04D875E878D859E850E943E0E88239B
:101F600079F1EE2069F120913601822F82958F70F0
:101F700090E0029774F0809131019091320198873E
:101F80008F831986BB86AA862C87CE0107960E946E
:101F9000D00D86E0F801A1E3B1E001900D928A95A1
:101FA000E1F70E94910E0E94830E0DC0561729F191
:101FB0004D875E878D859E850E943E0E81112CC0C7
:101FC000C8010E94D00DFF24F394D6C0282F207F93
:101FD00069F77A2DB98AA88A6E2D89890E94430EE5
:101FE00081E391E00E94D00D86E0F60111928A957E
:101FF000E9F70E94830EF12CBFC04913D9CFE1103D
:10200000D7CFF8018583C8010E94D00D86E0F60184
:1020100011928A95E9F7B0C0EE2091F22091360135
:10202000822F82958F7090E002970CF4B2CF80914E
:102030003101909132019A8389831B82BD82AC82E7
:102040002E83CE010196A3CFE83CF10508F047C0EE
:10205000FE2CEE2009F4B4CF561330C049132EC025
:102060002091360120FD21C0822F82958F70482F4C
:1020700050E041155105C9F0F80125834F30510555
:1020800041F08F5F982F9295907F822F8F70892BD0
:102090008583C8010E94D00D86E0F801A1E3B1E07C
:1020A00001900D928A95E1F742C086E0F801A1E324
:1020B000B1E001900D928A95E1F75EC04D875E8791
:1020C0008D859E850E943E0E811163CF80913601E1
:1020D000816080933601C8010E94D00D4DC07A2DD9
:1020E000B98AA88A6E2D89890E94430E86E0F6017E
:1020F00011928A95E9F71BC0EE2009F461CF4D8754
:102100005E878D859E850E943E0EF82E882309F4F9
:1021100057CF86E0F801A1E3B1E001900D928A95D6
:10212000E1F781E391E00E947B0A0E94910E0E94F8
:10213000830E22C04D875E878D859E850E94A613E3
:10214000292F22952F70223028F49F7039F08111A9
:1021500005C00BC0243028F49F7049F4805E88309D
:1021600020F0C8010E94D00D9F2CF92C05C0F80169
:102170009581907F99F7F9CF8F2D61960FB6F894DE
:10218000DEBF0FBECDBFDF91CF911F910F91FF90AA
:10219000EF90DF90CF90BF90AF909F90089588EC24
:1021A00090E008951F93CF93DF93CDB7DEB72C97C0
:1021B0000FB6F894DEBF0FBECDBF4F835887698737
:1021C0007A878B879C87CE0107960E94FD0E882315
:1021D000D1F09F8188852A853B85232B31F08F3F65
:1021E00031F481E09F3F19F403C081E001C080E039
:1021F00080FD47C04F81588569857A858B859C8590
:102200000E94520E3EC086E0FE013796DE01119616
:1022100001900D928A95E1F7FF81E8856A857B85BB
:102220006115710531F0EF3F31F481E0FF3F19F4A2
:1022300003C081E001C080E080FD23C02091000147
:1022400030E0C9010196877099274091FF0050E066
:1022500084179507F1F1F983EA837D836C8396E017
:10226000929FD001939FB00D1124AF5FBE4FFE012E
:10227000319601900D929A95E1F7809300010E94AA
:10228000620E16E08091FF0090910001891771F1B4
:10229000189FC00111248F5F9E4F0E94FD0E88235E
:1022A00029F1E091FF001E9FF0011124EF5FFE4F26
:1022B0004081518162817381848195810E94520E97
:1022C0008091FF0090E00196877099278093FF002E
:1022D000D9CF0E94160E109200011092FF00E1E388
:1022E000F1E086E0DF011D928A95E9F72C960FB6A2
:1022F000F894DEBF0FBECDBFDF91CF911F9108953F
:10230000EF92FF920F931F93CF93DF938C01892B52
:1023100009F46CC0F12CEE24E394E8012196F80155
:102320008491843740F4843008F051C0813081F0CA
:10233000823019F15BC0853709F444C0A8F19CE7ED
:10234000980F903708F052C08F770E94230B41C03E
:102350000E5F1F4FFE01849190E2980F983050F469
:102360008770FE2D01C0FF0F8A95EAF78F2F0E941C
:10237000081414C00E94810A2DC00E5F1F4FFE0179
:10238000849190E2980F983060F48770FE2D01C020
:10239000FF0F8A95EAF78F2F0E940E140E943314C4
:1023A00019C00E94230B16C00E5F1F4FFE01C4917F
:1023B000CC2381F08FE99FE00197F1F700C0000086
:1023C000C150F6CF0E5F1F4FFE01F49003C00E9474
:1023D000810A8E018F2D882309F49FCFEFE9FFE05A
:1023E0003197F1F700C000008150F5CFDF91CF9118
:1023F0001F910F91FF90EF900895089508950C9408
:10240000FE110C94FF110E94011260936D017093F4
:102410006E0180936F01909370010C94000E0C94E8
:1024200003120F931F9300916D0110916E01209183
:102430006F0130917001602B712B822B932B1F91B8
:102440000F910C9403120F931F9300916D01109143
:102450006E0120916F0130917001602371238223FE
:1024600093231F910F910C9403120F931F930091CC
:102470006D0110916E0120916F0130917001602704
:102480007127822793271F910F910C9403120C94AC
:10249000FE110E9447126093690170936A01809354
:1024A0006B0190936C010C94000E60E070E0CB0126
:1024B0000C9449120F931F9341E050E060E070E0EC
:1024C0008A019B0104C0000F111F221F331F8A9530
:1024D000D2F7C901B8011F910F910C9449120F93C3
:1024E0001F9341E050E060E070E004C0440F551FCE
:1024F000661F771F8A95D2F78091690190916A01D2
:10250000A0916B01B0916C018A019B01082B192BE2
:102510002A2B3B2BC901B8011F910F910C94491232
:102520000F931F9341E050E060E070E004C0440F5F
:10253000551F661F771F8A95D2F740955095609575
:1025400070958091690190916A01A0916B01B091A1
:102550006C018A019B01082319232A233B23C9010B
:10256000B8011F910F910C9449120F931F9341E0F2
:1025700050E060E070E004C0440F551F661F771FF5
:102580008A95D2F78091690190916A01A0916B01BF
:10259000B0916C018A019B01082719272A273B2744
:1025A000C901B8011F910F910C9449120F931F9309
:1025B0000091690110916A0120916B0130916C01C9
:1025C000602B712B822B932B1F910F910C9449122E
:1025D0000F931F930091690110916A0120916B0183
:1025E00030916C0160237123822393231F910F91FB
:1025F0000C9449120F931F930091690110916A0185
:1026000020916B0130916C016027712782279327FD
:102610001F910F910C944912089520E1929F800D13
:102620001124E82FE695E695E695877051E001C004
:10263000550F8A95EAF785E0E89FF0011124E95CDF
:10264000FE4F20E030E070E04081CB01022E02C05E
:10265000969587950A94E2F7817081958427852362
:10266000842781932F5F3F4F2530310569F7089507
:1026700020E1929F800D1124682F669566956695DE
:10268000982F977085E0689FB001112440E050E0DA
:1026900080E0FB01E40FF51FE95CFE4F208130E094
:1026A000092E02C0369527950A94E2F72170332748
:1026B000042E01C0220F0A94EAF7822B4F5F5F4F6E
:1026C0004530510531F70895BF92CF92DF92EF92D6
:1026D000FF920F931F93CF93DF938C01C0906901FA
:1026E000D0906A01E0906B01F0906C0180916D01D7
:1026F00090916E01A0916F01B0917001C82AD92A02
:10270000EA2AFB2ACFE1D0E0D701C6010C2E04C093
:10271000B695A795979587950A94D2F780FD04C042
:10272000219790F7B12C07C0BC2EB8018C2F0E94C6
:10273000DE030197A9F38B2DDF91CF911F910F91AC
:10274000FF90EF90DF90CF90BF900895CF93DF93ED
:10275000EC010E946413BE010E94DE03DF91CF9161
:1027600008951F93CF93DF93EB019091FE0099237F
:1027700021F0CB010E94A61313C0882349F0CB019E
:102780000E946413182F682FCE010E940D1304C0FD
:10279000CB010E943813182FBE01812F0E94DE0347
:1027A000DF91CF911F910895809171018595859555
:1027B00085950895809171018770089590917101B8
:1027C000977081E009F480E0089580917D0108957B
:1027D00090917D01892B80937D0108958095909142
:1027E0007D01892380937D01089510927D010895D4
:1027F00090917C01892B80937C0108958095909124
:102800007C01892380937C01089510927C010895B6
:1028100090917B01892B80937B0108958095909105
:102820007B01892380937B01089510927B01089599
:1028300080917201089508950C941B140C941C143B
:1028400090917201981721F0809372010C941E14DC
:10285000089580917201882329F01092720180E01E
:102860000C941E140895E0916000F0916100809135
:102870007D018083E0916000F09161009081809102
:102880007C01892B8083E0916000F0916100908150
:1028900080917B01892B808380917201882381F054
:1028A000E0916000F09161009081892B808380919C
:1028B0006000909161000E943D1581110E942914D1
:1028C00080916000909161000C9446090C941B1457
:1028D00098E0899F90011124262B209371010E947A
:1028E0006F12809171018595859585950C9466147C
:1028F0001092710180E00C94661420917101809512
:10290000822380937101982F977079F430E0482FDB
:10291000082E000C550B2417350739F08595859541
:1029200085950E9490120C947814089580E090E0B0
:102930000E94261921E08C3E9E4F09F020E0822F54
:10294000089582E090E00C941E1983E090E00C94CE
:102950001E19CF9384E090E00E941E19C82F81E2D7
:1029600090E00E941E192C2F30E0A901582BCA01BB
:10297000CF910895CF93C92F682F84E090E00E94F3
:102980002C196C2F81E290E0CF910C942C19AB01A3
:10299000BC018FE090E00C943D19AB01BC0183E1D8
:1029A00090E00C943D1960E070E0CB010C94CD14E4
:1029B00060E070E0CB010E94C7140C94D3146CEE5D
:1029C0007EEF80E090E00E94491960E082E090E0B4
:1029D0000E942C1960E083E090E00E942C19109274
:1029E0006D0110926E0110926F011092700160E003
:1029F00084E090E00E942C1960E081E290E00E9467
:102A00002C1960E085E090E00E942C1960E086E0DF
:102A100090E00E942C196FEF87E090E00E942C1943
:102A200040E050E0BA0188E090E00E943D1960E08B
:102A30008DE090E00E942C1940E050E0BA0188E15E
:102A400090E00E943D1960E087E190E00E942C191F
:102A500040E050E0BA018CE190E00E943D1960E056
:102A600080E290E00E942C190C94D8140C94DF148E
:102A7000682F8EE090E00C942C19FC01329697E0C0
:102A800080E0915029F021912223D9F38F5FF9CF73
:102A90000895662349F0FC01329608962191621749
:102AA00029F0E817F907D1F780E0089581E008954B
:102AB0009C01FC0132969FEF80E04191461789F01E
:102AC0009F3F19F4411101C0982F8F5F8630A9F7FD
:102AD0009F3F39F0F901E90FF11D97FDFA956283E7
:102AE000089508959C012A5F3F4FFC0142814613DF
:102AF00001C01282019682179307B9F708950C94CA
:102B000058150C947215029626E0FC0111922A9534
:102B1000E9F7089508950C948A150C948A15CF93BB
:102B20000E948D150E9427060E948B15C0E08C2FF5
:102B30000E94C705892B29F4CF5FC530C1F780E01B
:102B400001C081E0CF9108958BE083BF8AEF8CBFF5
:102B500082E089BF08952FB7F89480912502909163
:102B60002602A0912702B09128022FBF08959C0150
:102B70004FB7F8948091250290912602A0912702E8
:102B8000B09128024FBF821B930B089578941F9237
:102B90000F920FB60F9211248F939F93AF93BF9311
:102BA0008091250290912602A0912702B0912802DF
:102BB0000196A11DB11D8093250290932602A0933A
:102BC0002702B0932802BF91AF919F918F910F90F0
:102BD0000FBE0F901F90189587E090EBDC0180935B
:102BE0007B0290937C02A0937D02B0937E029CE0D6
:102BF00088E10FB6F894A89581BD0FBE91BDFFCFB7
:102C00000E949614811102C00E9436150E94A114E0
:102C100080937E010E94A91490932A028093290236
:102C20000E94A514682F70E080E090E00E940F12CF
:102C30006091690170916A0180916B0190916C01C2
:102C40000C9447120F931F93CF93DF930E94AB1501
:102C50008C010E948D090E9419170E9435090E945B
:102C6000FD188B9A80E0815041F0A895EFE9FFE0D4
:102C70003197F1F700C00000F6CF8B987894FFEF02
:102C800020E732E0F15020403040E1F700C0000082
:102C90000E949709C0E0DCE080915202882331F065
:102CA000109252020E94AB158C0107C0C8010E940D
:102CB000B715069788F4C1110FC00E9406188091BD
:102CC0005802882329F08091360284FD0E949F09D2
:102CD0000E94C016C0E0E0CF0E948F15811102C093
:102CE000C1E0DACFF89491B3939A892F8C6081BBBD
:102CF00082B38D2782BB8FE7E8E3F1E08150E040AB
:102D0000F040E1F700C0000082B38D2782BB91BB89
:102D100093987894E5CF8091100208950895CF9309
:102D2000DF9300D01F92CDB7DEB790918101981349
:102D300007C020917F01309180012617370791F05D
:102D4000809381017093800160937F0189837B83ED
:102D50006A8380916F0284FF05C063E0CE01019613
:102D60000E9402180F900F900F90DF91CF9108955D
:102D7000BC0184E00C948F16BC0183E00C948F1688
:102D8000CF93DF93CAE0D0E08091360284FF18C071
:102D900080918D0190918E019817E1F028E0829F3B
:102DA000C001112468E081579E4F0E94FE17809158
:102DB0008D0190E001968F70992780938D010AC054
:102DC0000E9406188FE99FE00197F1F700C000000C
:102DD0002197D1F6DF91CF910895CF93DF93EC0146
:102DE000A0918E01B0E0CD0101968F7099272091BE
:102DF0008D01281779F093E0AA0FBB1F9A95E1F790
:102E0000A157BE4F98E0FE0101900D929A95E1F70F
:102E100080938E010E9406180E94C01688E0FE0171
:102E2000A5E8B1E001900D928A95E1F7DF91CF918D
:102E3000089582E690E00895FC01808180768032DA
:102E4000A1F58181813061F484819581892B69F5B7
:102E500085E891E0909354028093530288E00895AE
:102E6000823041F48FE092E09093540280935302B9
:102E700081E008958A3021F4838180930F0215C088
:102E8000893099F4828193818115924081F4848103
:102E90009581892B61F481E08093840186819781FB
:102EA000909383018093820102C080E008958FEFA8
:102EB00008952091820130918301232B71F020919C
:102EC0008401213051F4FC01808180931002109222
:102ED00083011092820181E008958FEF0895089593
:102EE000FC0193819330D9F068F4913081F09230F5
:102EF00009F060C080ED91E09093540280935302FA
:102F00008BE30895913281F19232F1F153C08BE05D
:102F100092E0909354028093530282E1089582815B
:102F2000813061F040F0823089F0833009F042C096
:102F30008DE192E013C089E492E010C08DE392E04D
:102F400090935402809353028AE0089583E292E0C2
:102F5000909354028093530288E108959093540211
:102F60008093530284E008958281882329F0813080
:102F700009F58BEF91E002C082EE91E0909354024C
:102F80008093530289E0089584819581009751F0E0
:102F9000019781F48DE492E0909354028093530260
:102FA00082E308958FE792E0909354028093530256
:102FB00080E4089580E008951F93CF93DF93162F48
:102FC000EA01288124FF05C0398128E823272983C5
:102FD00002C02AE52883212FFC01CE010296DC01E4
:102FE00031913D9321501216DCF3612F0E94BB01F9
:102FF0001C5F1883DF91CF911F91089546E352E043
:103000000C94DC174FE652E00C94DC17CF93DF935F
:1030100060915502635067FD93C080915102CCE0EE
:10302000D0E0C81BD109C75ADD4F809150028031D2
:1030300020F4CE010E946F1781C08D3209F06EC05E
:10304000683009F07BC083EC80932B028AE5809383
:103050006D0010924F028881807621F0CE010E948F
:103060001C1749C09A81109234028981811106C0CF
:103070001092350224E332E082E038C0853019F442
:103080009093560230C08630A1F48B81813041F09C
:10309000823031F0833021F0813211F0823221F41C
:1030A000CE010E94701701C080E090E490934F021F
:1030B00022C0883089F0893019F49093580213C0E7
:1030C0008A3069F08B3079F48BE4809337028093F7
:1030D00070028093430207C028E532E002C024E377
:1030E00032E081E003C024E332E080E03093540218
:1030F0002093530209C08F3F39F4988197FD8E8148
:1031000090E890934F0207C09F81911104C09E8167
:10311000981708F4892F80936C0010C080914F029B
:1031200087FF0CC0CE010E9459178F3F21F48EE11A
:1031300080936D0003C0811110926C0010925502B3
:1031400080916D0084FF4CC080916C008F3F09F42A
:1031500047C0C82F893008F0C8E08C1B80936C00F2
:1031600090912B0288E8892780932B02CC2359F178
:10317000809153029091540220914F0226FF12C079
:10318000ABE2B2E02C2FAC014B525240FA01EA0FF5
:10319000FB1FE4911196EC93119721501196211188
:1031A000F5CF08C0ECE2F2E0DC012C2F3D91319329
:1031B0002150E1F701962FEF2C0F820F911D909374
:1031C0005402809353026C2F8CE292E00E94BB0168
:1031D000CC5FCC3019F08FEF80936C00C0936D0002
:1031E00084E190B39C7031F48150D9F7109256026B
:1031F00010924E02DF91CF910895CF93DF9385B760
:10320000886085BF8BB780688BBFC6E3D2E08BE454
:103210008983AFE6B2E011968C931197E2E4F2E075
:1032200081838AE588838C938083DF91CF91089591
:10323000EE0FFF1F0590F491E02D0994E199FECF68
:103240009FBB8EBBE09A99278DB30895A8E1B0E0AB
:1032500042E050E00C945119262FE199FECF9FBB1C
:103260008EBBE09A01970DB2021631F02DBB0FB65E
:10327000F894E29AE19A0FBE08950396272F0E94D0
:103280002D190E942C19252F0E942D19242F0C94E2
:103290002D190196272F0E942D190C942C19DC0151
:1032A000CB01FC01E199FECF06C0FFBBEEBBE09A6B
:1032B00031960DB20D9241505040B8F70895F894F0
:0232C000FFCF3E
:1032C20073018B16ED168E16BC16B816FF5AE20065
:1032D200E900EA00B500B600B700CD008301CC00DA
:1032E2008A0192019401210223022402250226026C
:1032F20027022A02B300B4006F00700081828304A7
:1033020005073031363797969594939291906035B0
:1033120034333200E200E900EA00B500B600B7003B
:10332200CD008301CC008A01920194012102230283
:1033320024022502260227022A02B300B4006F00EB
:063342007000818283008F
:00000001FF
